{
  "contractName": "EducatorNetwork",
  "abi": [
    {
      "anonymous": false,
      "inputs": [
        {
          "indexed": false,
          "name": "videoId",
          "type": "uint256"
        },
        {
          "indexed": false,
          "name": "description",
          "type": "string"
        },
        {
          "indexed": false,
          "name": "IPFSlocation",
          "type": "string"
        }
      ],
      "name": "LogVideoAdded",
      "type": "event"
    },
    {
      "anonymous": false,
      "inputs": [
        {
          "indexed": false,
          "name": "videoId",
          "type": "uint256"
        },
        {
          "indexed": false,
          "name": "language",
          "type": "string"
        },
        {
          "indexed": false,
          "name": "IPFSlocation",
          "type": "string"
        }
      ],
      "name": "LogTranslationAdded",
      "type": "event"
    },
    {
      "anonymous": false,
      "inputs": [
        {
          "indexed": false,
          "name": "videoId",
          "type": "uint256"
        }
      ],
      "name": "LogVideoPurchased",
      "type": "event"
    },
    {
      "anonymous": false,
      "inputs": [
        {
          "indexed": false,
          "name": "videoId",
          "type": "uint256"
        },
        {
          "indexed": false,
          "name": "language",
          "type": "string"
        }
      ],
      "name": "LogTranslationPurchased",
      "type": "event"
    },
    {
      "constant": false,
      "inputs": [
        {
          "name": "_price",
          "type": "uint256"
        },
        {
          "name": "_description",
          "type": "string"
        },
        {
          "name": "_IPFSLocation",
          "type": "string"
        }
      ],
      "name": "addVideo",
      "outputs": [
        {
          "name": "",
          "type": "uint256"
        }
      ],
      "payable": false,
      "stateMutability": "nonpayable",
      "type": "function"
    },
    {
      "constant": true,
      "inputs": [
        {
          "name": "_videoId",
          "type": "uint256"
        }
      ],
      "name": "getVideo",
      "outputs": [
        {
          "name": "",
          "type": "address"
        },
        {
          "name": "",
          "type": "string"
        },
        {
          "name": "",
          "type": "uint256"
        },
        {
          "name": "",
          "type": "string"
        }
      ],
      "payable": false,
      "stateMutability": "view",
      "type": "function"
    },
    {
      "constant": false,
      "inputs": [
        {
          "name": "_videoId",
          "type": "uint256"
        },
        {
          "name": "_price",
          "type": "uint256"
        },
        {
          "name": "_language",
          "type": "string"
        },
        {
          "name": "_IPFSLocation",
          "type": "string"
        }
      ],
      "name": "addTranslation",
      "outputs": [],
      "payable": false,
      "stateMutability": "nonpayable",
      "type": "function"
    },
    {
      "constant": true,
      "inputs": [
        {
          "name": "_videoId",
          "type": "uint256"
        },
        {
          "name": "_language",
          "type": "string"
        }
      ],
      "name": "getTranslation",
      "outputs": [
        {
          "name": "",
          "type": "address"
        },
        {
          "name": "",
          "type": "uint256"
        },
        {
          "name": "",
          "type": "string"
        }
      ],
      "payable": false,
      "stateMutability": "view",
      "type": "function"
    },
    {
      "constant": false,
      "inputs": [
        {
          "name": "_videoId",
          "type": "uint256"
        }
      ],
      "name": "purchaseVideo",
      "outputs": [
        {
          "name": "",
          "type": "string"
        }
      ],
      "payable": true,
      "stateMutability": "payable",
      "type": "function"
    },
    {
      "constant": false,
      "inputs": [
        {
          "name": "_videoId",
          "type": "uint256"
        },
        {
          "name": "_language",
          "type": "string"
        }
      ],
      "name": "purchaseTranslation",
      "outputs": [
        {
          "name": "",
          "type": "string"
        }
      ],
      "payable": true,
      "stateMutability": "payable",
      "type": "function"
    }
  ],
  "bytecode": "0x60806040526040518061012001604052806040518060400160405280600881526020017f6d616e646172696e00000000000000000000000000000000000000000000000081525081526020016040518060400160405280600781526020017f656e676c6973680000000000000000000000000000000000000000000000000081525081526020016040518060400160405280600781526020017f7370616e6973680000000000000000000000000000000000000000000000000081525081526020016040518060400160405280600581526020017f68696e646900000000000000000000000000000000000000000000000000000081525081526020016040518060400160405280600681526020017f617261626963000000000000000000000000000000000000000000000000000081525081526020016040518060400160405280600781526020017f7275737369616e0000000000000000000000000000000000000000000000000081525081526020016040518060400160405280600a81526020017f706f72747567756573650000000000000000000000000000000000000000000081525081526020016040518060400160405280600681526020017f6672656e6368000000000000000000000000000000000000000000000000000081525081526020016040518060400160405280600781526020017f6974616c69616e000000000000000000000000000000000000000000000000008152508152506000906009620002339291906200024d565b506000600a553480156200024657600080fd5b50620003d3565b826009810192821562000294579160200282015b828111156200029357825182908051906020019062000282929190620002a7565b509160200191906001019062000261565b5b509050620002a391906200032e565b5090565b828054600181600116156101000203166002900490600052602060002090601f016020900481019282601f10620002ea57805160ff19168380011785556200031b565b828001600101855582156200031b579182015b828111156200031a578251825591602001919060010190620002fd565b5b5090506200032a91906200035f565b5090565b6200035c91905b808211156200035857600081816200034e919062000387565b5060010162000335565b5090565b90565b6200038491905b808211156200038057600081600090555060010162000366565b5090565b90565b50805460018160011615610100020316600290046000825580601f10620003af5750620003d0565b601f016020900490600052602060002090810190620003cf91906200035f565b5b50565b6122a280620003e36000396000f3fe6080604052600436106100555760003560e01c806321f591c61461005a5780632893eca21461019857806394bdffaa146102f257806399d2261714610477578063d4de248d1461051e578063f29bc7161461069b575b600080fd5b61011d6004803603604081101561007057600080fd5b81019080803590602001909291908035906020019064010000000081111561009757600080fd5b8201836020820111156100a957600080fd5b803590602001918460018302840111640100000000831117156100cb57600080fd5b91908080601f016020809104026020016040519081016040528093929190818152602001838380828437600081840152601f19601f82011690508083019250505050505050919291929050505061080e565b6040518080602001828103825283818151815260200191508051906020019080838360005b8381101561015d578082015181840152602081019050610142565b50505050905090810190601f16801561018a5780820380516001836020036101000a031916815260200191505b509250505060405180910390f35b3480156101a457600080fd5b506101d1600480360360208110156101bb57600080fd5b8101908080359060200190929190505050610d49565b604051808573ffffffffffffffffffffffffffffffffffffffff1673ffffffffffffffffffffffffffffffffffffffff1681526020018060200184815260200180602001838103835286818151815260200191508051906020019080838360005b8381101561024d578082015181840152602081019050610232565b50505050905090810190601f16801561027a5780820380516001836020036101000a031916815260200191505b50838103825284818151815260200191508051906020019080838360005b838110156102b3578082015181840152602081019050610298565b50505050905090810190601f1680156102e05780820380516001836020036101000a031916815260200191505b50965050505050505060405180910390f35b3480156102fe57600080fd5b506103c26004803603604081101561031557600080fd5b81019080803590602001909291908035906020019064010000000081111561033c57600080fd5b82018360208201111561034e57600080fd5b8035906020019184600183028401116401000000008311171561037057600080fd5b91908080601f016020809104026020016040519081016040528093929190818152602001838380828437600081840152601f19601f820116905080830192505050505050509192919290505050610fb8565b604051808473ffffffffffffffffffffffffffffffffffffffff1673ffffffffffffffffffffffffffffffffffffffff16815260200183815260200180602001828103825283818151815260200191508051906020019080838360005b8381101561043a57808201518184015260208101905061041f565b50505050905090810190601f1680156104675780820380516001836020036101000a031916815260200191505b5094505050505060405180910390f35b6104a36004803603602081101561048d57600080fd5b8101908080359060200190929190505050611476565b6040518080602001828103825283818151815260200191508051906020019080838360005b838110156104e35780820151818401526020810190506104c8565b50505050905090810190601f1680156105105780820380516001836020036101000a031916815260200191505b509250505060405180910390f35b34801561052a57600080fd5b506106856004803603606081101561054157600080fd5b81019080803590602001909291908035906020019064010000000081111561056857600080fd5b82018360208201111561057a57600080fd5b8035906020019184600183028401116401000000008311171561059c57600080fd5b91908080601f016020809104026020016040519081016040528093929190818152602001838380828437600081840152601f19601f820116905080830192505050505050509192919290803590602001906401000000008111156105ff57600080fd5b82018360208201111561061157600080fd5b8035906020019184600183028401116401000000008311171561063357600080fd5b91908080601f016020809104026020016040519081016040528093929190818152602001838380828437600081840152601f19601f82011690508083019250505050505050919291929050505061175b565b6040518082815260200191505060405180910390f35b3480156106a757600080fd5b5061080c600480360360808110156106be57600080fd5b810190808035906020019092919080359060200190929190803590602001906401000000008111156106ef57600080fd5b82018360208201111561070157600080fd5b8035906020019184600183028401116401000000008311171561072357600080fd5b91908080601f016020809104026020016040519081016040528093929190818152602001838380828437600081840152601f19601f8201169050808301925050505050505091929192908035906020019064010000000081111561078657600080fd5b82018360208201111561079857600080fd5b803590602001918460018302840111640100000000831117156107ba57600080fd5b91908080601f016020809104026020016040519081016040528093929190818152602001838380828437600081840152601f19601f82011690508083019250505050505050919291929050505061196e565b005b60608260006009600083815260200190815260200160002060030180546001816001161561010002031660029004905014156108b2576040517f08c379a00000000000000000000000000000000000000000000000000000000081526004018080602001828103825260148152602001807f566964656f20646f6573206e6f7420657869737400000000000000000000000081525060200191505060405180910390fd5b836108bc84611f5f565b600060096000848152602001908152602001600020600501826040518082805190602001908083835b6020831061090857805182526020820191506020810190506020830392506108e5565b6001836020036101000a038019825116818451168082178552505050505050905001915050908152602001604051809103902060020180546001816001161561010002031660029004905014156109aa576040517f08c379a00000000000000000000000000000000000000000000000000000000081526004018080602001828103825260258152602001806121d56025913960400191505060405180910390fd5b85600960008881526020019081526020016000206005016109ca87611f5f565b6040518082805190602001908083835b602083106109fd57805182526020820191506020810190506020830392506109da565b6001836020036101000a03801982511681845116808217855250505050505090500191505090815260200160405180910390206001015480341015610aaa576040517f08c379a00000000000000000000000000000000000000000000000000000000081526004018080602001828103825260108152602001807f4e6f7420656e6f7567682066756e64730000000000000000000000000000000081525060200191505060405180910390fd5b87610ab488611f5f565b6000151560096000848152602001908152602001600020600501826040518082805190602001908083835b60208310610b025780518252602082019150602081019050602083039250610adf565b6001836020036101000a038019825116818451168082178552505050505050905001915050908152602001604051809103902060030160003373ffffffffffffffffffffffffffffffffffffffff1673ffffffffffffffffffffffffffffffffffffffff16815260200190815260200160002060009054906101000a900460ff16151514610bdb576040517f08c379a000000000000000000000000000000000000000000000000000000000815260040180806020018281038252602981526020018061224e6029913960400191505060405180910390fd5b6001600960008c815260200190815260200160002060060160003373ffffffffffffffffffffffffffffffffffffffff1673ffffffffffffffffffffffffffffffffffffffff16815260200190815260200160002060006101000a81548160ff0219169083151502179055507fb7e7745e051c70f472b3de26d851edbe5e5acac7bcc5730b59fb85873f3dcb558a610c728b611f5f565b6040518083815260200180602001828103825283818151815260200191508051906020019080838360005b83811015610cb8578082015181840152602081019050610c9d565b50505050905090810190601f168015610ce55780820380516001836020036101000a031916815260200191505b50935050505060405180910390a150503373ffffffffffffffffffffffffffffffffffffffff166108fc8234039081150290604051600060405180830381858888f19350505050158015610d3d573d6000803e3d6000fd5b50505050505092915050565b6000606060006060846000600960008381526020019081526020016000206003018054600181600116156101000203166002900490501415610df3576040517f08c379a00000000000000000000000000000000000000000000000000000000081526004018080602001828103825260148152602001807f566964656f20646f6573206e6f7420657869737400000000000000000000000081525060200191505060405180910390fd5b6009600087815260200190815260200160002060020160009054906101000a900473ffffffffffffffffffffffffffffffffffffffff16600960008881526020019081526020016000206004016009600089815260200190815260200160002060000154600960008a8152602001908152602001600020600301839350828054600181600116156101000203166002900480601f016020809104026020016040519081016040528092919081815260200182805460018160011615610100020316600290048015610f055780601f10610eda57610100808354040283529160200191610f05565b820191906000526020600020905b815481529060010190602001808311610ee857829003601f168201915b50505050509250808054600181600116156101000203166002900480601f016020809104026020016040519081016040528092919081815260200182805460018160011615610100020316600290048015610fa15780601f10610f7657610100808354040283529160200191610fa1565b820191906000526020600020905b815481529060010190602001808311610f8457829003601f168201915b505050505090509450945094509450509193509193565b6000806060610fc684611f5f565b600080905060008090505b60098110156110aa5761109360008260098110610fea57fe5b018054600181600116156101000203166002900480601f01602080910402602001604051908101604052809291908181526020018280546001816001161561010002031660029004801561107f5780601f106110545761010080835404028352916020019161107f565b820191906000526020600020905b81548152906001019060200180831161106257829003601f168201915b505050505084611fe590919063ffffffff16565b1561109d57600191505b8080600101915050610fd1565b508061111e576040517f08c379a00000000000000000000000000000000000000000000000000000000081526004018080602001828103825260208152602001807f4e6f7420612076616c6964207472616e736c6174696f6e206c616e677561676581525060200191505060405180910390fd5b8661112887611f5f565b600060096000848152602001908152602001600020600501826040518082805190602001908083835b602083106111745780518252602082019150602081019050602083039250611151565b6001836020036101000a03801982511681845116808217855250505050505090500191505090815260200160405180910390206002018054600181600116156101000203166002900490501415611216576040517f08c379a00000000000000000000000000000000000000000000000000000000081526004018080602001828103825260258152602001806121d56025913960400191505060405180910390fd5b606061122189611f5f565b9050600960008b8152602001908152602001600020600501816040518082805190602001908083835b6020831061126d578051825260208201915060208101905060208303925061124a565b6001836020036101000a038019825116818451168082178552505050505050905001915050908152602001604051809103902060000160009054906101000a900473ffffffffffffffffffffffffffffffffffffffff16600960008c8152602001908152602001600020600501826040518082805190602001908083835b6020831061130e57805182526020820191506020810190506020830392506112eb565b6001836020036101000a038019825116818451168082178552505050505050905001915050908152602001604051809103902060010154600960008d8152602001908152602001600020600501836040518082805190602001908083835b6020831061138f578051825260208201915060208101905060208303925061136c565b6001836020036101000a0380198251168184511680821785525050505050509050019150509081526020016040518091039020600201829250808054600181600116156101000203166002900480601f01602080910402602001604051908101604052809291908181526020018280546001816001161561010002031660029004801561145d5780601f106114325761010080835404028352916020019161145d565b820191906000526020600020905b81548152906001019060200180831161144057829003601f168201915b5050505050905097509750975050505050509250925092565b606081600060096000838152602001908152602001600020600301805460018160011615610100020316600290049050141561151a576040517f08c379a00000000000000000000000000000000000000000000000000000000081526004018080602001828103825260148152602001807f566964656f20646f6573206e6f7420657869737400000000000000000000000081525060200191505060405180910390fd5b826009600085815260200190815260200160002060000154803410156115a8576040517f08c379a00000000000000000000000000000000000000000000000000000000081526004018080602001828103825260108152602001807f4e6f7420656e6f7567682066756e64730000000000000000000000000000000081525060200191505060405180910390fd5b84600015156009600083815260200190815260200160002060060160003373ffffffffffffffffffffffffffffffffffffffff1673ffffffffffffffffffffffffffffffffffffffff16815260200190815260200160002060009054906101000a900460ff16151514611666576040517f08c379a000000000000000000000000000000000000000000000000000000000815260040180806020018281038252602481526020018061222a6024913960400191505060405180910390fd5b60016009600088815260200190815260200160002060060160003373ffffffffffffffffffffffffffffffffffffffff1673ffffffffffffffffffffffffffffffffffffffff16815260200190815260200160002060006101000a81548160ff0219169083151502179055507f352def766290c03fc470034e431224b176e71ce2b5e07cf7a43a68c02fbe4cd0866040518082815260200191505060405180910390a1503373ffffffffffffffffffffffffffffffffffffffff166108fc8234039081150290604051600060405180830381858888f19350505050158015611752573d6000803e3d6000fd5b50505050919050565b600080600a6000815480929190600101919050559050806009600083815260200190815260200160002060010181905550336009600083815260200190815260200160002060020160006101000a81548173ffffffffffffffffffffffffffffffffffffffff021916908373ffffffffffffffffffffffffffffffffffffffff1602179055508460096000838152602001908152602001600020600001819055508360096000838152602001908152602001600020600401908051906020019061182692919061212f565b508260096000838152602001908152602001600020600301908051906020019061185192919061212f565b507fbe86ee58e91b21025d64de084bfa44baae93e5839fec30131d6a7b35881d8584818585604051808481526020018060200180602001838103835285818151815260200191508051906020019080838360005b838110156118c05780820151818401526020810190506118a5565b50505050905090810190601f1680156118ed5780820380516001836020036101000a031916815260200191505b50838103825284818151815260200191508051906020019080838360005b8381101561192657808201518184015260208101905061190b565b50505050905090810190601f1680156119535780820380516001836020036101000a031916815260200191505b509550505050505060405180910390a1809150509392505050565b61197782611f5f565b600080905060008090505b6009811015611a5b57611a446000826009811061199b57fe5b018054600181600116156101000203166002900480601f016020809104026020016040519081016040528092919081815260200182805460018160011615610100020316600290048015611a305780601f10611a0557610100808354040283529160200191611a30565b820191906000526020600020905b815481529060010190602001808311611a1357829003601f168201915b505050505084611fe590919063ffffffff16565b15611a4e57600191505b8080600101915050611982565b5080611acf576040517f08c379a00000000000000000000000000000000000000000000000000000000081526004018080602001828103825260208152602001807f4e6f7420612076616c6964207472616e736c6174696f6e206c616e677561676581525060200191505060405180910390fd5b856000600960008381526020019081526020016000206003018054600181600116156101000203166002900490501415611b71576040517f08c379a00000000000000000000000000000000000000000000000000000000081526004018080602001828103825260148152602001807f566964656f20646f6573206e6f7420657869737400000000000000000000000081525060200191505060405180910390fd5b6060611b7c86611f5f565b90506000600960008a8152602001908152602001600020600501826040518082805190602001908083835b60208310611bca5780518252602082019150602081019050602083039250611ba7565b6001836020036101000a038019825116818451168082178552505050505050905001915050908152602001604051809103902060020180546001816001161561010002031660029004905014611c6b576040517f08c379a00000000000000000000000000000000000000000000000000000000081526004018080602001828103825260308152602001806121fa6030913960400191505060405180910390fd5b33600960008a8152602001908152602001600020600501826040518082805190602001908083835b60208310611cb65780518252602082019150602081019050602083039250611c93565b6001836020036101000a038019825116818451168082178552505050505050905001915050908152602001604051809103902060000160006101000a81548173ffffffffffffffffffffffffffffffffffffffff021916908373ffffffffffffffffffffffffffffffffffffffff16021790555086600960008a8152602001908152602001600020600501826040518082805190602001908083835b60208310611d755780518252602082019150602081019050602083039250611d52565b6001836020036101000a03801982511681845116808217855250505050505090500191505090815260200160405180910390206001018190555084600960008a8152602001908152602001600020600501826040518082805190602001908083835b60208310611dfa5780518252602082019150602081019050602083039250611dd7565b6001836020036101000a03801982511681845116808217855250505050505090500191505090815260200160405180910390206002019080519060200190611e4392919061212f565b507f933f97314f59a66a3c75acdfe0a96f8d2e59d2acd5a77a9844b36dfc8974ac2f888287604051808481526020018060200180602001838103835285818151815260200191508051906020019080838360005b83811015611eb2578082015181840152602081019050611e97565b50505050905090810190601f168015611edf5780820380516001836020036101000a031916815260200191505b50838103825284818151815260200191508051906020019080838360005b83811015611f18578082015181840152602081019050611efd565b50505050905090810190601f168015611f455780820380516001836020036101000a031916815260200191505b509550505050505060405180910390a15050505050505050565b60608082905060008090505b8151811015611fdb57611f93828281518110611f8357fe5b602001015160f81c60f81b6120b2565b828281518110611f9f57fe5b60200101907effffffffffffffffffffffffffffffffffffffffffffffffffffffffffffff1916908160001a9053508080600101915050611f6b565b5080915050919050565b6000606083905060608390508051825114612005576000925050506120ac565b60008090505b82518110156120a45781818151811061202057fe5b602001015160f81c60f81b7effffffffffffffffffffffffffffffffffffffffffffffffffffffffffffff191683828151811061205957fe5b602001015160f81c60f81b7effffffffffffffffffffffffffffffffffffffffffffffffffffffffffffff19161461209757600093505050506120ac565b808060010191505061200b565b506001925050505b92915050565b6000604160f81b827effffffffffffffffffffffffffffffffffffffffffffffffffffffffffffff1916101580156121105750605a60f81b827effffffffffffffffffffffffffffffffffffffffffffffffffffffffffffff191611155b156121265760208260f81c0160f81b905061212a565b8190505b919050565b828054600181600116156101000203166002900490600052602060002090601f016020900481019282601f1061217057805160ff191683800117855561219e565b8280016001018555821561219e579182015b8281111561219d578251825591602001919060010190612182565b5b5090506121ab91906121af565b5090565b6121d191905b808211156121cd5760008160009055506001016121b5565b5090565b9056fe4e6f207472616e736c6174696f6e20666f722074686174206c616e6775616765207965742e5468657265277320616c72656164792061207472616e736c6174696f6e20666f722074686174206c616e67756167652e596f7527766520616c726561647920707572636861736564207468697320766964656f21596f7527766520616c7265616479207075726368617365642074686973207472616e736c6174696f6ea165627a7a72305820fc1320ffc8bd76f38a2c8c8c2f318d78d6a47d2cb25261d395f1b44a4cb82ed70029",
  "source": "pragma solidity ^0.5.0;\r\nimport \"../installed_contracts/Strings.sol\";\r\nimport \"../installed_contracts/zeppelin/contracts/math/SafeMath.sol\";\r\n//import \"github.com/OpenZeppelin/openzeppelin-contracts/tree/master/contracts/math\";\r\n\r\ncontract EducatorNetwork {\r\n    using Strings for string;\r\n    using SafeMath for uint;\r\n\r\n    struct Video{\r\n        uint price;\r\n        uint videoId;\r\n        address payable uploader;\r\n        string IPFSlocation;\r\n        string description;\r\n        mapping(string => Translation) translations;\r\n        mapping(address => bool) buyers;\r\n    }\r\n    \r\n    struct Translation {\r\n        address payable translator;\r\n        uint price;\r\n        string IPFSlocation;\r\n        mapping(address => bool) tBuyers;\r\n\r\n    }\r\n    \r\n    string[9] languages = [\"mandarin\", \"english\", \"spanish\", \"hindi\", \"arabic\", \"russian\", \"portuguese\", \"french\", \"italian\"];\r\n    mapping(uint => Video) internal videos;\r\n    uint private videoCount = 0;\r\n    \r\n    event LogVideoAdded(uint videoId, string description, string IPFSlocation);\r\n    event LogTranslationAdded(uint videoId, string language, string IPFSlocation);\r\n    event LogVideoPurchased(uint videoId);\r\n    event LogTranslationPurchased(uint videoId, string language);\r\n    \r\n    modifier isValidLanguage(string memory _language){\r\n        bool isValid = false;\r\n        for(uint i = 0; i < languages.length; i++){\r\n            if (_language.compareTo(languages[i])){\r\n                isValid = true;\r\n            }\r\n        }\r\n        require(isValid, \"Not a valid translation language\");\r\n        _;\r\n    }\r\n    \r\n    modifier isExistingVideo(uint videoId){\r\n        require(bytes(videos[videoId].IPFSlocation).length != 0, \"Video does not exist\");\r\n        _;\r\n    }\r\n    \r\n    modifier isExistingTranslation(uint videoId, string memory language){\r\n        require(bytes(videos[videoId].translations[language].IPFSlocation).length != 0, \"No translation for that language yet.\");\r\n        _;\r\n    }\r\n    \r\n    modifier checkValue(uint _videoId, uint _price){\r\n        require(msg.value >= _price, \"Not enough funds\");\r\n        _;\r\n        msg.sender.transfer(uint256(msg.value) - uint256(_price));\r\n    }\r\n    \r\n    modifier alreadyPurchasedVideo(uint _videoId){\r\n        require(videos[_videoId].buyers[msg.sender] == false, \"You've already purchased this video!\");\r\n        _;\r\n    }\r\n    \r\n    modifier alreadyPurchasedTranslation(uint _videoId, string memory _language){\r\n        require(videos[_videoId].translations[_language].tBuyers[msg.sender] == false, \"You've already purchased this translation\");\r\n        _;\r\n    }\r\n    \r\n    // function addVideo()\r\n    function addVideo(uint _price, string memory _description, string memory _IPFSLocation)\r\n    public \r\n    returns(uint)\r\n    {\r\n        uint _videoId = videoCount++;\r\n        videos[_videoId].videoId = _videoId;\r\n        videos[_videoId].uploader = msg.sender;\r\n        videos[_videoId].price = _price;\r\n        videos[_videoId].description = _description;\r\n        videos[_videoId].IPFSlocation = _IPFSLocation;\r\n\r\n        emit LogVideoAdded(_videoId, _description, _IPFSLocation);\r\n        \r\n        return _videoId;\r\n    }\r\n\r\n    function getVideo(uint _videoId)\r\n    public view isExistingVideo(_videoId)\r\n    returns(address, string memory, uint, string memory)\r\n    {\r\n        return(videos[_videoId].uploader, videos[_videoId].description, videos[_videoId].price, videos[_videoId].IPFSlocation);\r\n    }\r\n   \r\n    function addTranslation(uint _videoId, uint _price, string memory _language, string memory _IPFSLocation)\r\n    public isValidLanguage(_language.lower()) isExistingVideo(_videoId)\r\n    {\r\n        string memory language = _language.lower();\r\n        require(bytes(videos[_videoId].translations[language].IPFSlocation).length == 0, \"There's already a translation for that language.\");\r\n        videos[_videoId].translations[language].translator = msg.sender;\r\n        videos[_videoId].translations[language].price = _price;\r\n        videos[_videoId].translations[language].IPFSlocation = _IPFSLocation;\r\n        \r\n        emit LogTranslationAdded(_videoId, language, _IPFSLocation);\r\n    }\r\n    \r\n    function getTranslation(uint _videoId, string memory _language)\r\n    public view isValidLanguage(_language.lower()) isExistingTranslation(_videoId, _language.lower())\r\n    returns(address, uint, string memory)\r\n    {\r\n        string memory language = _language.lower();\r\n        return(videos[_videoId].translations[language].translator, videos[_videoId].translations[language].price, videos[_videoId].translations[language].IPFSlocation);\r\n    }\r\n    \r\n    function purchaseVideo(uint _videoId)\r\n    public payable isExistingVideo(_videoId) checkValue(_videoId, videos[_videoId].price) alreadyPurchasedVideo(_videoId)\r\n    returns(string memory)\r\n    {\r\n        videos[_videoId].buyers[msg.sender] = true;\r\n        emit LogVideoPurchased(_videoId);\r\n    }\r\n    \r\n    function purchaseTranslation(uint _videoId, string memory _language)\r\n    public payable isExistingVideo(_videoId) isExistingTranslation(_videoId, _language.lower()) \r\n    checkValue(_videoId, videos[_videoId].translations[_language.lower()].price) alreadyPurchasedTranslation(_videoId, _language.lower())\r\n    returns(string memory)\r\n    {\r\n        videos[_videoId].buyers[msg.sender] = true;\r\n        emit LogTranslationPurchased(_videoId, _language.lower());\r\n    }\r\n   \r\n}",
  "sourcePath": "/mnt/c/Users/ayrto/OneDrive/Documents/GitHub/EducatorNetwork/contracts/EducatorNetwork.sol",
  "compiler": {
    "name": "solc",
    "version": "0.5.8+commit.23d335f2.Emscripten.clang"
  },
  "schemaVersion": "3.0.11",
  "updatedAt": "2019-07-31T00:59:33.167Z",
  "devdoc": {
    "methods": {}
  },
  "userdoc": {
    "methods": {}
  }
}