{
  "contractName": "EducatorNetwork",
  "abi": [
    {
      "anonymous": false,
      "inputs": [
        {
          "indexed": false,
          "name": "videoId",
          "type": "uint256"
        },
        {
          "indexed": false,
          "name": "description",
          "type": "string"
        },
        {
          "indexed": false,
          "name": "IPFSlocation",
          "type": "string"
        }
      ],
      "name": "LogVideoAdded",
      "type": "event"
    },
    {
      "anonymous": false,
      "inputs": [
        {
          "indexed": false,
          "name": "videoId",
          "type": "uint256"
        },
        {
          "indexed": false,
          "name": "language",
          "type": "string"
        },
        {
          "indexed": false,
          "name": "IPFSlocation",
          "type": "string"
        }
      ],
      "name": "LogTranslationAdded",
      "type": "event"
    },
    {
      "anonymous": false,
      "inputs": [
        {
          "indexed": false,
          "name": "videoId",
          "type": "uint256"
        }
      ],
      "name": "LogVideoPurchased",
      "type": "event"
    },
    {
      "anonymous": false,
      "inputs": [
        {
          "indexed": false,
          "name": "videoId",
          "type": "uint256"
        },
        {
          "indexed": false,
          "name": "language",
          "type": "string"
        }
      ],
      "name": "LogTranslationPurchased",
      "type": "event"
    },
    {
      "constant": false,
      "inputs": [
        {
          "name": "_price",
          "type": "uint256"
        },
        {
          "name": "_description",
          "type": "string"
        },
        {
          "name": "_IPFSLocation",
          "type": "string"
        }
      ],
      "name": "addVideo",
      "outputs": [
        {
          "name": "videoId",
          "type": "uint256"
        }
      ],
      "payable": false,
      "stateMutability": "nonpayable",
      "type": "function"
    },
    {
      "constant": true,
      "inputs": [
        {
          "name": "_videoId",
          "type": "uint256"
        }
      ],
      "name": "getVideo",
      "outputs": [
        {
          "name": "uploader",
          "type": "address"
        },
        {
          "name": "description",
          "type": "string"
        },
        {
          "name": "price",
          "type": "uint256"
        },
        {
          "name": "IPFSLocation",
          "type": "string"
        }
      ],
      "payable": false,
      "stateMutability": "view",
      "type": "function"
    },
    {
      "constant": false,
      "inputs": [
        {
          "name": "_videoId",
          "type": "uint256"
        },
        {
          "name": "_price",
          "type": "uint256"
        },
        {
          "name": "_language",
          "type": "string"
        },
        {
          "name": "_IPFSLocation",
          "type": "string"
        }
      ],
      "name": "addTranslation",
      "outputs": [],
      "payable": false,
      "stateMutability": "nonpayable",
      "type": "function"
    },
    {
      "constant": true,
      "inputs": [
        {
          "name": "_videoId",
          "type": "uint256"
        },
        {
          "name": "_language",
          "type": "string"
        }
      ],
      "name": "getTranslation",
      "outputs": [
        {
          "name": "translator",
          "type": "address"
        },
        {
          "name": "price",
          "type": "uint256"
        },
        {
          "name": "IPFSLocation",
          "type": "string"
        }
      ],
      "payable": false,
      "stateMutability": "view",
      "type": "function"
    },
    {
      "constant": false,
      "inputs": [
        {
          "name": "_videoId",
          "type": "uint256"
        }
      ],
      "name": "purchaseVideo",
      "outputs": [],
      "payable": true,
      "stateMutability": "payable",
      "type": "function"
    },
    {
      "constant": true,
      "inputs": [
        {
          "name": "_videoId",
          "type": "uint256"
        }
      ],
      "name": "didPurchaseVideo",
      "outputs": [
        {
          "name": "",
          "type": "bool"
        }
      ],
      "payable": false,
      "stateMutability": "view",
      "type": "function"
    },
    {
      "constant": false,
      "inputs": [
        {
          "name": "_videoId",
          "type": "uint256"
        },
        {
          "name": "_language",
          "type": "string"
        }
      ],
      "name": "purchaseTranslation",
      "outputs": [],
      "payable": true,
      "stateMutability": "payable",
      "type": "function"
    },
    {
      "constant": true,
      "inputs": [
        {
          "name": "_videoId",
          "type": "uint256"
        },
        {
          "name": "_language",
          "type": "string"
        }
      ],
      "name": "didPurchaseTranslation",
      "outputs": [
        {
          "name": "",
          "type": "bool"
        }
      ],
      "payable": false,
      "stateMutability": "view",
      "type": "function"
    }
  ],
  "bytecode": "0x60806040526040518061012001604052806040518060400160405280600881526020017f6d616e646172696e00000000000000000000000000000000000000000000000081525081526020016040518060400160405280600781526020017f656e676c6973680000000000000000000000000000000000000000000000000081525081526020016040518060400160405280600781526020017f7370616e6973680000000000000000000000000000000000000000000000000081525081526020016040518060400160405280600581526020017f68696e646900000000000000000000000000000000000000000000000000000081525081526020016040518060400160405280600681526020017f617261626963000000000000000000000000000000000000000000000000000081525081526020016040518060400160405280600781526020017f7275737369616e0000000000000000000000000000000000000000000000000081525081526020016040518060400160405280600a81526020017f706f72747567756573650000000000000000000000000000000000000000000081525081526020016040518060400160405280600681526020017f6672656e6368000000000000000000000000000000000000000000000000000081525081526020016040518060400160405280600781526020017f6974616c69616e000000000000000000000000000000000000000000000000008152508152506000906009620002339291906200024d565b506000600a553480156200024657600080fd5b50620003d3565b826009810192821562000294579160200282015b828111156200029357825182908051906020019062000282929190620002a7565b509160200191906001019062000261565b5b509050620002a391906200032e565b5090565b828054600181600116156101000203166002900490600052602060002090601f016020900481019282601f10620002ea57805160ff19168380011785556200031b565b828001600101855582156200031b579182015b828111156200031a578251825591602001919060010190620002fd565b5b5090506200032a91906200035f565b5090565b6200035c91905b808211156200035857600081816200034e919062000387565b5060010162000335565b5090565b90565b6200038491905b808211156200038057600081600090555060010162000366565b5090565b90565b50805460018160011615610100020316600290046000825580601f10620003af5750620003d0565b601f016020900490600052602060002090810190620003cf91906200035f565b5b50565b612a0380620003e36000396000f3fe60806040526004361061007b5760003560e01c806399d226171161004e57806399d2261714610477578063c3f4bfba146104a5578063d4de248d1461058f578063f29bc7161461070c5761007b565b806321f591c6146100805780632893eca2146101455780635f26423b1461029f57806394bdffaa146102f2575b600080fd5b6101436004803603604081101561009657600080fd5b8101908080359060200190929190803590602001906401000000008111156100bd57600080fd5b8201836020820111156100cf57600080fd5b803590602001918460018302840111640100000000831117156100f157600080fd5b91908080601f016020809104026020016040519081016040528093929190818152602001838380828437600081840152601f19601f82011690508083019250505050505050919291929050505061087f565b005b34801561015157600080fd5b5061017e6004803603602081101561016857600080fd5b8101908080359060200190929190505050611062565b604051808573ffffffffffffffffffffffffffffffffffffffff1673ffffffffffffffffffffffffffffffffffffffff1681526020018060200184815260200180602001838103835286818151815260200191508051906020019080838360005b838110156101fa5780820151818401526020810190506101df565b50505050905090810190601f1680156102275780820380516001836020036101000a031916815260200191505b50838103825284818151815260200191508051906020019080838360005b83811015610260578082015181840152602081019050610245565b50505050905090810190601f16801561028d5780820380516001836020036101000a031916815260200191505b50965050505050505060405180910390f35b3480156102ab57600080fd5b506102d8600480360360208110156102c257600080fd5b81019080803590602001909291905050506112d1565b604051808215151515815260200191505060405180910390f35b3480156102fe57600080fd5b506103c26004803603604081101561031557600080fd5b81019080803590602001909291908035906020019064010000000081111561033c57600080fd5b82018360208201111561034e57600080fd5b8035906020019184600183028401116401000000008311171561037057600080fd5b91908080601f016020809104026020016040519081016040528093929190818152602001838380828437600081840152601f19601f8201169050808301925050505050505091929192905050506113de565b604051808473ffffffffffffffffffffffffffffffffffffffff1673ffffffffffffffffffffffffffffffffffffffff16815260200183815260200180602001828103825283818151815260200191508051906020019080838360005b8381101561043a57808201518184015260208101905061041f565b50505050905090810190601f1680156104675780820380516001836020036101000a031916815260200191505b5094505050505060405180910390f35b6104a36004803603602081101561048d57600080fd5b810190808035906020019092919050505061189c565b005b3480156104b157600080fd5b50610575600480360360408110156104c857600080fd5b8101908080359060200190929190803590602001906401000000008111156104ef57600080fd5b82018360208201111561050157600080fd5b8035906020019184600183028401116401000000008311171561052357600080fd5b91908080601f016020809104026020016040519081016040528093929190818152602001838380828437600081840152601f19601f820116905080830192505050505050509192919290505050611c14565b604051808215151515815260200191505060405180910390f35b34801561059b57600080fd5b506106f6600480360360608110156105b257600080fd5b8101908080359060200190929190803590602001906401000000008111156105d957600080fd5b8201836020820111156105eb57600080fd5b8035906020019184600183028401116401000000008311171561060d57600080fd5b91908080601f016020809104026020016040519081016040528093929190818152602001838380828437600081840152601f19601f8201169050808301925050505050505091929192908035906020019064010000000081111561067057600080fd5b82018360208201111561068257600080fd5b803590602001918460018302840111640100000000831117156106a457600080fd5b91908080601f016020809104026020016040519081016040528093929190818152602001838380828437600081840152601f19601f820116905080830192505050505050509192919290505050611e8e565b6040518082815260200191505060405180910390f35b34801561071857600080fd5b5061087d6004803603608081101561072f57600080fd5b8101908080359060200190929190803590602001909291908035906020019064010000000081111561076057600080fd5b82018360208201111561077257600080fd5b8035906020019184600183028401116401000000008311171561079457600080fd5b91908080601f016020809104026020016040519081016040528093929190818152602001838380828437600081840152601f19601f820116905080830192505050505050509192919290803590602001906401000000008111156107f757600080fd5b82018360208201111561080957600080fd5b8035906020019184600183028401116401000000008311171561082b57600080fd5b91908080601f016020809104026020016040519081016040528093929190818152602001838380828437600081840152601f19601f8201169050808301925050505050505091929192905050506120a1565b005b816000600960008381526020019081526020016000206003018054600181600116156101000203166002900490501415610921576040517f08c379a00000000000000000000000000000000000000000000000000000000081526004018080602001828103825260148152602001807f566964656f20646f6573206e6f7420657869737400000000000000000000000081525060200191505060405180910390fd5b82600115156009600083815260200190815260200160002060060160003373ffffffffffffffffffffffffffffffffffffffff1673ffffffffffffffffffffffffffffffffffffffff16815260200190815260200160002060009054906101000a900460ff161515146109df576040517f08c379a000000000000000000000000000000000000000000000000000000000815260040180806020018281038252602e81526020018061292d602e913960400191505060405180910390fd5b836109e984612692565b600060096000848152602001908152602001600020600501826040518082805190602001908083835b60208310610a355780518252602082019150602081019050602083039250610a12565b6001836020036101000a03801982511681845116808217855250505050505090500191505090815260200160405180910390206002018054600181600116156101000203166002900490501415610ad7576040517f08c379a00000000000000000000000000000000000000000000000000000000081526004018080602001828103825260258152602001806129086025913960400191505060405180910390fd5b85610ae186612692565b6000151560096000848152602001908152602001600020600501826040518082805190602001908083835b60208310610b2f5780518252602082019150602081019050602083039250610b0c565b6001836020036101000a038019825116818451168082178552505050505050905001915050908152602001604051809103902060030160003373ffffffffffffffffffffffffffffffffffffffff1673ffffffffffffffffffffffffffffffffffffffff16815260200190815260200160002060009054906101000a900460ff16151514610c08576040517f08c379a00000000000000000000000000000000000000000000000000000000081526004018080602001828103825260298152602001806129af6029913960400191505060405180910390fd5b60096000898152602001908152602001600020600501610c2788612692565b6040518082805190602001908083835b60208310610c5a5780518252602082019150602081019050602083039250610c37565b6001836020036101000a03801982511681845116808217855250505050505090500191505090815260200160405180910390206001015480341015610d07576040517f08c379a00000000000000000000000000000000000000000000000000000000081526004018080602001828103825260108152602001807f4e6f7420656e6f7567682066756e64730000000000000000000000000000000081525060200191505060405180910390fd5b6001600960008b8152602001908152602001600020600501610d288a612692565b6040518082805190602001908083835b60208310610d5b5780518252602082019150602081019050602083039250610d38565b6001836020036101000a038019825116818451168082178552505050505050905001915050908152602001604051809103902060030160003373ffffffffffffffffffffffffffffffffffffffff1673ffffffffffffffffffffffffffffffffffffffff16815260200190815260200160002060006101000a81548160ff021916908315150217905550600960008a8152602001908152602001600020600501610e0489612692565b6040518082805190602001908083835b60208310610e375780518252602082019150602081019050602083039250610e14565b6001836020036101000a038019825116818451168082178552505050505050905001915050908152602001604051809103902060000160009054906101000a900473ffffffffffffffffffffffffffffffffffffffff1673ffffffffffffffffffffffffffffffffffffffff166108fc600960008c8152602001908152602001600020600501610ec68b612692565b6040518082805190602001908083835b60208310610ef95780518252602082019150602081019050602083039250610ed6565b6001836020036101000a0380198251168184511680821785525050505050509050019150509081526020016040518091039020600101549081150290604051600060405180830381858888f19350505050158015610f5b573d6000803e3d6000fd5b507fb7e7745e051c70f472b3de26d851edbe5e5acac7bcc5730b59fb85873f3dcb5589610f878a612692565b6040518083815260200180602001828103825283818151815260200191508051906020019080838360005b83811015610fcd578082015181840152602081019050610fb2565b50505050905090810190601f168015610ffa5780820380516001836020036101000a031916815260200191505b50935050505060405180910390a1600081340390503373ffffffffffffffffffffffffffffffffffffffff166108fc829081150290604051600060405180830381858888f19350505050158015611055573d6000803e3d6000fd5b5050505050505050505050565b600060606000606084600060096000838152602001908152602001600020600301805460018160011615610100020316600290049050141561110c576040517f08c379a00000000000000000000000000000000000000000000000000000000081526004018080602001828103825260148152602001807f566964656f20646f6573206e6f7420657869737400000000000000000000000081525060200191505060405180910390fd5b6009600087815260200190815260200160002060020160009054906101000a900473ffffffffffffffffffffffffffffffffffffffff16600960008881526020019081526020016000206004016009600089815260200190815260200160002060000154600960008a8152602001908152602001600020600301839350828054600181600116156101000203166002900480601f01602080910402602001604051908101604052809291908181526020018280546001816001161561010002031660029004801561121e5780601f106111f35761010080835404028352916020019161121e565b820191906000526020600020905b81548152906001019060200180831161120157829003601f168201915b50505050509250808054600181600116156101000203166002900480601f0160208091040260200160405190810160405280929190818152602001828054600181600116156101000203166002900480156112ba5780601f1061128f576101008083540402835291602001916112ba565b820191906000526020600020905b81548152906001019060200180831161129d57829003601f168201915b505050505090509450945094509450509193509193565b6000816000600960008381526020019081526020016000206003018054600181600116156101000203166002900490501415611375576040517f08c379a00000000000000000000000000000000000000000000000000000000081526004018080602001828103825260148152602001807f566964656f20646f6573206e6f7420657869737400000000000000000000000081525060200191505060405180910390fd5b6009600084815260200190815260200160002060060160003373ffffffffffffffffffffffffffffffffffffffff1673ffffffffffffffffffffffffffffffffffffffff16815260200190815260200160002060009054906101000a900460ff16915050919050565b60008060606113ec84612692565b600080905060008090505b60098110156114d0576114b96000826009811061141057fe5b018054600181600116156101000203166002900480601f0160208091040260200160405190810160405280929190818152602001828054600181600116156101000203166002900480156114a55780601f1061147a576101008083540402835291602001916114a5565b820191906000526020600020905b81548152906001019060200180831161148857829003601f168201915b50505050508461271890919063ffffffff16565b156114c357600191505b80806001019150506113f7565b5080611544576040517f08c379a00000000000000000000000000000000000000000000000000000000081526004018080602001828103825260208152602001807f4e6f7420612076616c6964207472616e736c6174696f6e206c616e677561676581525060200191505060405180910390fd5b8661154e87612692565b600060096000848152602001908152602001600020600501826040518082805190602001908083835b6020831061159a5780518252602082019150602081019050602083039250611577565b6001836020036101000a0380198251168184511680821785525050505050509050019150509081526020016040518091039020600201805460018160011615610100020316600290049050141561163c576040517f08c379a00000000000000000000000000000000000000000000000000000000081526004018080602001828103825260258152602001806129086025913960400191505060405180910390fd5b606061164789612692565b9050600960008b8152602001908152602001600020600501816040518082805190602001908083835b602083106116935780518252602082019150602081019050602083039250611670565b6001836020036101000a038019825116818451168082178552505050505050905001915050908152602001604051809103902060000160009054906101000a900473ffffffffffffffffffffffffffffffffffffffff16600960008c8152602001908152602001600020600501826040518082805190602001908083835b602083106117345780518252602082019150602081019050602083039250611711565b6001836020036101000a038019825116818451168082178552505050505050905001915050908152602001604051809103902060010154600960008d8152602001908152602001600020600501836040518082805190602001908083835b602083106117b55780518252602082019150602081019050602083039250611792565b6001836020036101000a0380198251168184511680821785525050505050509050019150509081526020016040518091039020600201829250808054600181600116156101000203166002900480601f0160208091040260200160405190810160405280929190818152602001828054600181600116156101000203166002900480156118835780601f1061185857610100808354040283529160200191611883565b820191906000526020600020905b81548152906001019060200180831161186657829003601f168201915b5050505050905097509750975050505050509250925092565b80600060096000838152602001908152602001600020600301805460018160011615610100020316600290049050141561193e576040517f08c379a00000000000000000000000000000000000000000000000000000000081526004018080602001828103825260148152602001807f566964656f20646f6573206e6f7420657869737400000000000000000000000081525060200191505060405180910390fd5b81600015156009600083815260200190815260200160002060060160003373ffffffffffffffffffffffffffffffffffffffff1673ffffffffffffffffffffffffffffffffffffffff16815260200190815260200160002060009054906101000a900460ff161515146119fc576040517f08c379a000000000000000000000000000000000000000000000000000000000815260040180806020018281038252602481526020018061298b6024913960400191505060405180910390fd5b600960008481526020019081526020016000206000015480341015611a89576040517f08c379a00000000000000000000000000000000000000000000000000000000081526004018080602001828103825260108152602001807f4e6f7420656e6f7567682066756e64730000000000000000000000000000000081525060200191505060405180910390fd5b60016009600086815260200190815260200160002060060160003373ffffffffffffffffffffffffffffffffffffffff1673ffffffffffffffffffffffffffffffffffffffff16815260200190815260200160002060006101000a81548160ff0219169083151502179055506009600085815260200190815260200160002060020160009054906101000a900473ffffffffffffffffffffffffffffffffffffffff1673ffffffffffffffffffffffffffffffffffffffff166108fc60096000878152602001908152602001600020600001549081150290604051600060405180830381858888f19350505050158015611b87573d6000803e3d6000fd5b507f352def766290c03fc470034e431224b176e71ce2b5e07cf7a43a68c02fbe4cd0846040518082815260200191505060405180910390a1600081340390503373ffffffffffffffffffffffffffffffffffffffff166108fc829081150290604051600060405180830381858888f19350505050158015611c0c573d6000803e3d6000fd5b505050505050565b6000826000600960008381526020019081526020016000206003018054600181600116156101000203166002900490501415611cb8576040517f08c379a00000000000000000000000000000000000000000000000000000000081526004018080602001828103825260148152602001807f566964656f20646f6573206e6f7420657869737400000000000000000000000081525060200191505060405180910390fd5b83611cc284612692565b600060096000848152602001908152602001600020600501826040518082805190602001908083835b60208310611d0e5780518252602082019150602081019050602083039250611ceb565b6001836020036101000a03801982511681845116808217855250505050505090500191505090815260200160405180910390206002018054600181600116156101000203166002900490501415611db0576040517f08c379a00000000000000000000000000000000000000000000000000000000081526004018080602001828103825260258152602001806129086025913960400191505060405180910390fd5b60096000878152602001908152602001600020600501611dcf86612692565b6040518082805190602001908083835b60208310611e025780518252602082019150602081019050602083039250611ddf565b6001836020036101000a038019825116818451168082178552505050505050905001915050908152602001604051809103902060030160003373ffffffffffffffffffffffffffffffffffffffff1673ffffffffffffffffffffffffffffffffffffffff16815260200190815260200160002060009054906101000a900460ff16935050505092915050565b600080600a6000815480929190600101919050559050806009600083815260200190815260200160002060010181905550336009600083815260200190815260200160002060020160006101000a81548173ffffffffffffffffffffffffffffffffffffffff021916908373ffffffffffffffffffffffffffffffffffffffff16021790555084600960008381526020019081526020016000206000018190555083600960008381526020019081526020016000206004019080519060200190611f59929190612862565b5082600960008381526020019081526020016000206003019080519060200190611f84929190612862565b507fbe86ee58e91b21025d64de084bfa44baae93e5839fec30131d6a7b35881d8584818585604051808481526020018060200180602001838103835285818151815260200191508051906020019080838360005b83811015611ff3578082015181840152602081019050611fd8565b50505050905090810190601f1680156120205780820380516001836020036101000a031916815260200191505b50838103825284818151815260200191508051906020019080838360005b8381101561205957808201518184015260208101905061203e565b50505050905090810190601f1680156120865780820380516001836020036101000a031916815260200191505b509550505050505060405180910390a1809150509392505050565b6120aa82612692565b600080905060008090505b600981101561218e57612177600082600981106120ce57fe5b018054600181600116156101000203166002900480601f0160208091040260200160405190810160405280929190818152602001828054600181600116156101000203166002900480156121635780601f1061213857610100808354040283529160200191612163565b820191906000526020600020905b81548152906001019060200180831161214657829003601f168201915b50505050508461271890919063ffffffff16565b1561218157600191505b80806001019150506120b5565b5080612202576040517f08c379a00000000000000000000000000000000000000000000000000000000081526004018080602001828103825260208152602001807f4e6f7420612076616c6964207472616e736c6174696f6e206c616e677561676581525060200191505060405180910390fd5b8560006009600083815260200190815260200160002060030180546001816001161561010002031660029004905014156122a4576040517f08c379a00000000000000000000000000000000000000000000000000000000081526004018080602001828103825260148152602001807f566964656f20646f6573206e6f7420657869737400000000000000000000000081525060200191505060405180910390fd5b60606122af86612692565b90506000600960008a8152602001908152602001600020600501826040518082805190602001908083835b602083106122fd57805182526020820191506020810190506020830392506122da565b6001836020036101000a03801982511681845116808217855250505050505090500191505090815260200160405180910390206002018054600181600116156101000203166002900490501461239e576040517f08c379a000000000000000000000000000000000000000000000000000000000815260040180806020018281038252603081526020018061295b6030913960400191505060405180910390fd5b33600960008a8152602001908152602001600020600501826040518082805190602001908083835b602083106123e957805182526020820191506020810190506020830392506123c6565b6001836020036101000a038019825116818451168082178552505050505050905001915050908152602001604051809103902060000160006101000a81548173ffffffffffffffffffffffffffffffffffffffff021916908373ffffffffffffffffffffffffffffffffffffffff16021790555086600960008a8152602001908152602001600020600501826040518082805190602001908083835b602083106124a85780518252602082019150602081019050602083039250612485565b6001836020036101000a03801982511681845116808217855250505050505090500191505090815260200160405180910390206001018190555084600960008a8152602001908152602001600020600501826040518082805190602001908083835b6020831061252d578051825260208201915060208101905060208303925061250a565b6001836020036101000a03801982511681845116808217855250505050505090500191505090815260200160405180910390206002019080519060200190612576929190612862565b507f933f97314f59a66a3c75acdfe0a96f8d2e59d2acd5a77a9844b36dfc8974ac2f888287604051808481526020018060200180602001838103835285818151815260200191508051906020019080838360005b838110156125e55780820151818401526020810190506125ca565b50505050905090810190601f1680156126125780820380516001836020036101000a031916815260200191505b50838103825284818151815260200191508051906020019080838360005b8381101561264b578082015181840152602081019050612630565b50505050905090810190601f1680156126785780820380516001836020036101000a031916815260200191505b509550505050505060405180910390a15050505050505050565b60608082905060008090505b815181101561270e576126c68282815181106126b657fe5b602001015160f81c60f81b6127e5565b8282815181106126d257fe5b60200101907effffffffffffffffffffffffffffffffffffffffffffffffffffffffffffff1916908160001a905350808060010191505061269e565b5080915050919050565b6000606083905060608390508051825114612738576000925050506127df565b60008090505b82518110156127d75781818151811061275357fe5b602001015160f81c60f81b7effffffffffffffffffffffffffffffffffffffffffffffffffffffffffffff191683828151811061278c57fe5b602001015160f81c60f81b7effffffffffffffffffffffffffffffffffffffffffffffffffffffffffffff1916146127ca57600093505050506127df565b808060010191505061273e565b506001925050505b92915050565b6000604160f81b827effffffffffffffffffffffffffffffffffffffffffffffffffffffffffffff1916101580156128435750605a60f81b827effffffffffffffffffffffffffffffffffffffffffffffffffffffffffffff191611155b156128595760208260f81c0160f81b905061285d565b8190505b919050565b828054600181600116156101000203166002900490600052602060002090601f016020900481019282601f106128a357805160ff19168380011785556128d1565b828001600101855582156128d1579182015b828111156128d05782518255916020019190600101906128b5565b5b5090506128de91906128e2565b5090565b61290491905b808211156129005760008160009055506001016128e8565b5090565b9056fe4e6f207472616e736c6174696f6e20666f722074686174206c616e6775616765207965742e596f752068617665206e6f74207075726368617365642074686520636f72726573706f6e64696e6720766964656f5468657265277320616c72656164792061207472616e736c6174696f6e20666f722074686174206c616e67756167652e596f7527766520616c726561647920707572636861736564207468697320766964656f21596f7527766520616c7265616479207075726368617365642074686973207472616e736c6174696f6ea165627a7a72305820c14e318b1f667b619c9aaa0d39a9ef4efbe7cbc5401f7bf4211245994317f7ca0029",
  "source": "pragma solidity ^0.5.0;\r\n\r\nlibrary Strings {\r\n    /**\r\n     * Compare To\r\n     * \r\n     * Compares the characters of two strings, to ensure that they have an \r\n     * identical footprint\r\n     * \r\n     * @param _base When being used for a data type this is the extended object\r\n     *               otherwise this is the string base to compare against\r\n     * @param _value The string the base is being compared to\r\n     * @return bool Simply notates if the two string have an equivalent\r\n     */\r\n    function compareTo(string memory _base, string memory _value)\r\n        internal\r\n        pure\r\n        returns (bool) {\r\n        bytes memory _baseBytes = bytes(_base);\r\n        bytes memory _valueBytes = bytes(_value);\r\n\r\n        if (_baseBytes.length != _valueBytes.length) {\r\n            return false;\r\n        }\r\n\r\n        for (uint i = 0; i < _baseBytes.length; i++) {\r\n            if (_baseBytes[i] != _valueBytes[i]) {\r\n                return false;\r\n            }\r\n        }\r\n\r\n        return true;\r\n    }\r\n\r\n        /**\r\n     * Lower\r\n     * \r\n     * Converts all the values of a string to their corresponding lower case\r\n     * value.\r\n     * \r\n     * @param _base When being used for a data type this is the extended object\r\n     *              otherwise this is the string base to convert to lower case\r\n     * @return string \r\n     */\r\n    function lower(string memory _base)\r\n        internal\r\n        pure\r\n        returns (string memory) {\r\n        bytes memory _baseBytes = bytes(_base);\r\n        for (uint i = 0; i < _baseBytes.length; i++) {\r\n            _baseBytes[i] = _lower(_baseBytes[i]);\r\n        }\r\n        return string(_baseBytes);\r\n    }\r\n\r\n    /**\r\n     * Lower\r\n     * \r\n     * Convert an alphabetic character to lower case and return the original\r\n     * value when not alphabetic\r\n     * \r\n     * @param _b1 The byte to be converted to lower case\r\n     * @return bytes1 The converted value if the passed value was alphabetic\r\n     *                and in a upper case otherwise returns the original value\r\n     */\r\n    function _lower(bytes1 _b1)\r\n        private\r\n        pure\r\n        returns (bytes1) {\r\n\r\n        if (_b1 >= 0x41 && _b1 <= 0x5A) {\r\n            return bytes1(uint8(_b1) + 32);\r\n        }\r\n\r\n        return _b1;\r\n    }\r\n}\r\n\r\nlibrary SafeMath {\r\n    function mul(uint256 a, uint256 b) internal pure returns (uint256) {\r\n    uint256 c = a * b;\r\n    assert(a == 0 || c / a == b);\r\n    return c;\r\n  }\r\n\r\n  function div(uint256 a, uint256 b) internal pure returns (uint256) {\r\n    // assert(b > 0); // Solidity automatically throws when dividing by 0\r\n    uint256 c = a / b;\r\n    // assert(a == b * c + a % b); // There is no case in which this doesn't hold\r\n    return c;\r\n  }\r\n\r\n  function sub(uint256 a, uint256 b) internal pure returns (uint256) {\r\n    assert(b <= a);\r\n    return a - b;\r\n  }\r\n\r\n  function add(uint256 a, uint256 b) internal pure returns (uint256) {\r\n    uint256 c = a + b;\r\n    assert(c >= a);\r\n    return c;\r\n  }\r\n}\r\n\r\n/**\r\n@title A network for educational content and content translations\r\n@author Ayrton Trujillo\r\n@notice You can use this contract to reference content stored on IPFS\r\n@dev Can render content using IPFSLocation hash part of video/translation's data structure\r\n*/\r\ncontract EducatorNetwork {\r\n    // Using imported libraries\r\n    using Strings for string;\r\n    using SafeMath for uint;\r\n\r\n    struct Video{\r\n        uint price;\r\n        uint videoId;\r\n        address payable uploader;\r\n        string IPFSlocation;\r\n        string description;\r\n        mapping(string => Translation) translations;\r\n        mapping(address => bool) buyers;\r\n    }\r\n    \r\n    struct Translation {\r\n        address payable translator;\r\n        uint price;\r\n        string IPFSlocation;\r\n        mapping(address => bool) tBuyers;\r\n    }\r\n    \r\n    // Valid languages\r\n    string[9] languages = [\"mandarin\", \"english\", \"spanish\", \"hindi\", \"arabic\", \"russian\", \"portuguese\", \"french\", \"italian\"];\r\n    \r\n    mapping(uint => Video) private videos;   // Mapping videoId (uint) to Video Struct\r\n    uint private videoCount = 0;            // Initial videoId\r\n    \r\n    // Logging events for uploads and purchases of videos and translations\r\n    event LogVideoAdded(uint videoId, string description, string IPFSlocation);\r\n    event LogTranslationAdded(uint videoId, string language, string IPFSlocation);\r\n    event LogVideoPurchased(uint videoId);\r\n    event LogTranslationPurchased(uint videoId, string language);\r\n    \r\n    // Check against list of valid languages, uses Strings library compareTo and lower methods\r\n    modifier isValidLanguage(string memory _language){\r\n        bool isValid = false;\r\n        for(uint i = 0; i < languages.length; i++){\r\n            if (_language.compareTo(languages[i])){\r\n                isValid = true;\r\n            }\r\n        }\r\n        require(isValid, \"Not a valid translation language\");\r\n        _;\r\n    }\r\n    \r\n    // Check that video with passed videoId has been initialized\r\n    modifier isExistingVideo(uint videoId){\r\n        require(bytes(videos[videoId].IPFSlocation).length != 0, \"Video does not exist\");\r\n        _;\r\n    }\r\n    \r\n    // Check that translation with passed paramenters has been initialized\r\n    modifier isExistingTranslation(uint videoId, string memory language){\r\n        require(bytes(videos[videoId].translations[language].IPFSlocation).length != 0, \"No translation for that language yet.\");\r\n        _;\r\n    }\r\n    \r\n    // Check msg.value against the price of video/translation. Refunds sender any excess funds after calling method returns\r\n    modifier checkValue(uint _price){\r\n        require(msg.value >= _price, \"Not enough funds\");\r\n        _;\r\n        uint amountToRefund = uint256(msg.value) - uint256(_price);\r\n        msg.sender.transfer(amountToRefund);\r\n    }\r\n    \r\n    // Check msg.sender hasn't previously purchased video to avoid double charging\r\n    modifier notPurchasedVideo(uint _videoId){\r\n        require(videos[_videoId].buyers[msg.sender] == false, \"You've already purchased this video!\");\r\n        _;\r\n    }\r\n\r\n    // Check msg.sender has purchased video\r\n    modifier havePurchasedVideo(uint _videoId){\r\n        require(videos[_videoId].buyers[msg.sender] == true, \"You have not purchased the corresponding video\");\r\n        _;\r\n    }\r\n    \r\n    // Check msg.sender hasn't previously purchased translation to avoid double charging\r\n    modifier notPurchasedTranslation(uint _videoId, string memory _language){\r\n        require(videos[_videoId].translations[_language].tBuyers[msg.sender] == false, \"You've already purchased this translation\");\r\n        _;\r\n    }\r\n    \r\n    /**\r\n    @notice Initialize a new video; set videoId to current videoCount and increase count; emit LogVideoAdded event\r\n    @param _price Video's desired price, specified by uploader\r\n    @param _description Video's description\r\n    @param _IPFSLocation Hash of location in IPFS\r\n    @return videoId for initialized video\r\n    */\r\n    function addVideo(uint _price, string memory _description, string memory _IPFSLocation)\r\n    public\r\n    returns(uint videoId)\r\n    {\r\n        uint _videoId = videoCount++;\r\n        videos[_videoId].videoId = _videoId;\r\n        videos[_videoId].uploader = msg.sender;\r\n        videos[_videoId].price = _price;\r\n        videos[_videoId].description = _description;\r\n        videos[_videoId].IPFSlocation = _IPFSLocation;\r\n\r\n        emit LogVideoAdded(_videoId, _description, _IPFSLocation);\r\n        \r\n        return _videoId;\r\n    }\r\n\r\n    /**\r\n    @notice Get information about a specific video\r\n    @param _videoId Reference to existing video\r\n    @return Uploader's address; video's description, price, and IPFS location\r\n    */\r\n    function getVideo(uint _videoId)\r\n    public view\r\n    isExistingVideo(_videoId)\r\n    returns(address uploader, string memory description, uint price, string memory IPFSLocation)\r\n    {\r\n        return(videos[_videoId].uploader, videos[_videoId].description, videos[_videoId].price, videos[_videoId].IPFSlocation);\r\n    }\r\n   \r\n    /**\r\n    @notice Add translation to existing video; emit LogTranslationAdded event\r\n    @param _videoId Reference to existing video\r\n    @param _price Translation's desired price, specified by translator\r\n    @param _language Translation's language\r\n    @param _IPFSLocation Hash of location in IPFS\r\n    */\r\n    function addTranslation(uint _videoId, uint _price, string memory _language, string memory _IPFSLocation)\r\n    public\r\n    isValidLanguage(_language.lower())\r\n    isExistingVideo(_videoId)\r\n    {\r\n        string memory language = _language.lower();\r\n        require(bytes(videos[_videoId].translations[language].IPFSlocation).length == 0, \"There's already a translation for that language.\");\r\n        videos[_videoId].translations[language].translator = msg.sender;\r\n        videos[_videoId].translations[language].price = _price;\r\n        videos[_videoId].translations[language].IPFSlocation = _IPFSLocation;\r\n        \r\n        emit LogTranslationAdded(_videoId, language, _IPFSLocation);\r\n    }\r\n    \r\n    /**\r\n    @notice Get information about a translation for a specific video\r\n    @param _videoId Reference to existing video\r\n    @param _language Translation's language\r\n    @return Translator's address; translation's price and IPFS location\r\n    */\r\n    function getTranslation(uint _videoId, string memory _language)\r\n    public view\r\n    isValidLanguage(_language.lower())\r\n    isExistingTranslation(_videoId, _language.lower())\r\n    returns(address translator, uint price, string memory IPFSLocation)\r\n    {\r\n        string memory language = _language.lower();\r\n        return(videos[_videoId].translations[language].translator, videos[_videoId].translations[language].price, videos[_videoId].translations[language].IPFSlocation);\r\n    }\r\n    \r\n    /**\r\n    @notice Purchase existing video by passing appropriate msg.value; purchaser's address added to video buyer's list;\r\n    @notice Transfer funds corresponding to price of the video to video uploader; emit LogVideoPurchased event\r\n    @param _videoId Reference to existing video\r\n    */\r\n    function purchaseVideo(uint _videoId)\r\n    public payable\r\n    isExistingVideo(_videoId)\r\n    notPurchasedVideo(_videoId)\r\n    checkValue(videos[_videoId].price)\r\n    {\r\n        videos[_videoId].buyers[msg.sender] = true;\r\n        videos[_videoId].uploader.transfer(videos[_videoId].price);\r\n        emit LogVideoPurchased(_videoId);\r\n    }\r\n\r\n    /**\r\n    @notice Check msg.sender is in the video's buyers list\r\n    @param _videoId Reference to existing video\r\n    @return true if msg.sender is in video's buyers list; false otherwise\r\n    */\r\n    function didPurchaseVideo(uint _videoId)\r\n    public view\r\n    isExistingVideo(_videoId)\r\n    returns(bool)\r\n    {\r\n        return videos[_videoId].buyers[msg.sender];\r\n    }\r\n    \r\n    /**\r\n    @notice Purchase translation of an existing video for a specific language; add purchaser's address to translation's buyers list\r\n    @notice Transfer funds corresponding to price of the translation to translator; emit LogTranslationPurchased event\r\n    @param _videoId Reference to existing video\r\n    @param _language Translation's language\r\n    */\r\n    function purchaseTranslation(uint _videoId, string memory _language)\r\n    public payable\r\n    isExistingVideo(_videoId)\r\n    havePurchasedVideo(_videoId)\r\n    isExistingTranslation(_videoId, _language.lower())\r\n    notPurchasedTranslation(_videoId, _language.lower())\r\n    checkValue(videos[_videoId].translations[_language.lower()].price)\r\n    {\r\n        videos[_videoId].translations[_language.lower()].tBuyers[msg.sender] = true;\r\n        videos[_videoId].translations[_language.lower()].translator.transfer(videos[_videoId].translations[_language.lower()].price);\r\n        emit LogTranslationPurchased(_videoId, _language.lower());\r\n    }\r\n\r\n    /**\r\n    @notice Check msg.sender is in translation's buyers list\r\n    @param _videoId Referenece to existing video\r\n    @param _language Translation's language\r\n    @return true if msg.sender in translation's buyers list; false otherwise\r\n    */\r\n    function didPurchaseTranslation(uint _videoId, string memory _language)\r\n    public view\r\n    isExistingVideo(_videoId)\r\n    isExistingTranslation(_videoId, _language.lower())\r\n    returns(bool)\r\n    {\r\n        return videos[_videoId].translations[_language.lower()].tBuyers[msg.sender];\r\n    }\r\n}",
  "sourcePath": "/mnt/c/Users/ayrto/OneDrive/Documents/GitHub/EducatorNetwork/contracts/EducatorNetwork.sol",
  "compiler": {
    "name": "solc",
    "version": "0.5.8+commit.23d335f2.Emscripten.clang"
  },
  "schemaVersion": "3.0.11",
  "updatedAt": "2019-07-31T23:36:02.444Z",
  "devdoc": {
    "author": "Ayrton Trujillo\r",
    "details": "Can render content using IPFSLocation hash part of video/translation's data structure\r",
    "methods": {
      "addTranslation(uint256,uint256,string,string)": {
        "params": {
          "_IPFSLocation": "Hash of location in IPFS\r",
          "_language": "Translation's language\r",
          "_price": "Translation's desired price, specified by translator\r",
          "_videoId": "Reference to existing video\r"
        }
      },
      "addVideo(uint256,string,string)": {
        "params": {
          "_IPFSLocation": "Hash of location in IPFS\r",
          "_description": "Video's description\r",
          "_price": "Video's desired price, specified by uploader\r"
        },
        "return": "videoId for initialized video\r"
      },
      "didPurchaseTranslation(uint256,string)": {
        "params": {
          "_language": "Translation's language\r",
          "_videoId": "Referenece to existing video\r"
        },
        "return": "true if msg.sender in translation's buyers list; false otherwise\r"
      },
      "didPurchaseVideo(uint256)": {
        "params": {
          "_videoId": "Reference to existing video\r"
        },
        "return": "true if msg.sender is in video's buyers list; false otherwise\r"
      },
      "getTranslation(uint256,string)": {
        "params": {
          "_language": "Translation's language\r",
          "_videoId": "Reference to existing video\r"
        },
        "return": "Translator's address; translation's price and IPFS location\r"
      },
      "getVideo(uint256)": {
        "params": {
          "_videoId": "Reference to existing video\r"
        },
        "return": "Uploader's address; video's description, price, and IPFS location\r"
      },
      "purchaseTranslation(uint256,string)": {
        "params": {
          "_language": "Translation's language\r",
          "_videoId": "Reference to existing video\r"
        }
      },
      "purchaseVideo(uint256)": {
        "params": {
          "_videoId": "Reference to existing video\r"
        }
      }
    },
    "title": "A network for educational content and content translations\r"
  },
  "userdoc": {
    "methods": {
      "addTranslation(uint256,uint256,string,string)": {
        "notice": "Add translation to existing video; emit LogTranslationAdded event\r"
      },
      "addVideo(uint256,string,string)": {
        "notice": "Initialize a new video; set videoId to current videoCount and increase count; emit LogVideoAdded event\r"
      },
      "didPurchaseTranslation(uint256,string)": {
        "notice": "Check msg.sender is in translation's buyers list\r"
      },
      "didPurchaseVideo(uint256)": {
        "notice": "Check msg.sender is in the video's buyers list\r"
      },
      "getTranslation(uint256,string)": {
        "notice": "Get information about a translation for a specific video\r"
      },
      "getVideo(uint256)": {
        "notice": "Get information about a specific video\r"
      },
      "purchaseTranslation(uint256,string)": {
        "notice": "Purchase translation of an existing video for a specific language; add purchaser's address to translation's buyers list\rTransfer funds corresponding to price of the translation to translator; emit LogTranslationPurchased event\r"
      },
      "purchaseVideo(uint256)": {
        "notice": "Purchase existing video by passing appropriate msg.value; purchaser's address added to video buyer's list;\rTransfer funds corresponding to price of the video to video uploader; emit LogVideoPurchased event\r"
      }
    },
    "notice": "You can use this contract to reference content stored on IPFS\r"
  }
}